:060000008831732B0000A3
:080008008301803140017708FB
:10001000A0007808A1007908A2007A08A300500186
:100020001A084001A40050011B084001A50050011E
:100030001C084001A60050011D084001A700073020
:10004000850016308400801E2B28073085000C3078
:100050008400801A5C280730850019308400801ED7
:100060003728073085000F308400801A5E2807305B
:1000700085001E308400001F43280730850014309F
:100080008400001B60282008F7002108F8002208DF
:10009000F9002308FA00240850019A0040012508BD
:1000A00050019B004001260850019C004001270898
:1000B00050019D0009004001803193288031A12822
:1000C0008031A7285634453452340034003400348B
:1000D0005334443441345434453400345334543468
:1000E00049344D34453400345234443454340034AB
:1000F000003400344D344F3444344534003400343B
:100100005034453445344B340034003450344F348B
:100110004B34453400340034483445344C34503486
:10012000003400340034B60B9A289310023099063C
:100130003C30B6004E018C128C12400180314001DF
:1001400043284E018F1240018031400143284E0167
:100150001413400180314001432820152A158A06D6
:100160000000C337E3372029D421A021EF36ED303A
:100170006E322028F237E332F3396F39A020633A28
:10018000693B65108A060001F33C6E3A613CA0327F
:1001900072396F398A060000D62252103017321099
:1001A0000001C220542A201ECC27571F8A060001B6
:1001B000C220542A201EC7274F223E050D00CD27FE
:1001C000C422A032723920050D00D630EC3A6510F9
:1001D0003D10303C253C8A060000AD16AD16AD162C
:1001E000AD16AD16AD16AD16AD16AD16AD16AD16F7
:1001F000AD16AD16AD16AD168A060001C337ED3645
:100200006137E439A02A50284529A021C129450594
:100210000D003F1ED232F43A7237202B6136F53290
:100220003E162012BC29653A202B6136F5323E106D
:100230005F10C326441061396714432929050D0056
:10024000AD16AD16AD16AD16AD16AD16AD16AD1696
:10025000AD16AD16AD16AD16AD16AD16AD168A06B9
:1002600000013F10D622D21D202B4529A011201EAF
:10027000C220542A3E108A06000124105322412A2B
:10028000C51DA029C420D422A036ED176432AF3C8E
:10029000721020050D002410532AC926C51DA0295F
:1002A000D424CD222034681DED3620108A060001AA
:1002B0003F10522AC41D202954223B10CD262F2244
:1002C000C417D92C2024481DCD26BA29531028192B
:1002D0003434F2142E108A0600012410CD27C422D3
:1002E0003B10CD27C422A029CC2245282E108A06F7
:1002F00000013F10C8224C283B10C8224C28200582
:100300000D00AD16AD16AD16AD16AD16AD16AD168B
:10031000AD16AD16AD16AD16AD16AD16AD16AD16C5
:100320008A0600012410D022C5253B10D022C52505
:100330002018F8204422301720050D003F10D02748
:10034000CB223B10D027CB222018F8204422301D8E
:10035000303C461820050D004539F23772050D0076
:10036000CE3777106937A039EC326538A0366F3256
:1003700065108A060000131119114301490801395B
:10038000013C031DC7294001131119154301400108
:100390009311991103104301490C0139013C031DCC
:1003A000D529400193119915430140010800141308
:1003B0001A130830F800DC290000F817F929F8139F
:1003C0004301CF0C4201031CE82940011A174201E6
:1003D0000318ED2940011A1342017817FA297813FE
:1003E000F80BF329F5294001E029F6290000400126
:1003F0001A1742010230F7008401840BFD29F70B24
:10040000FC2922308400840B032A062AF81F0A2ABA
:100410004001DF29781BEF29400108000B088B13EE
:1004200050019E171E1400000000891B8B171C082A
:100430007F3903195A2A4301C90050011A084301A0
:10044000CA0050011B084301CB004908CF004001FE
:10045000D72143014A0850019A0043014B0850013B
:100460009B000B088B139E171E1400000000891BB5
:100470008B171C0D1D0D7F3903195A2A4301C90022
:1004800050011A084301CA0050011B084301CB0068
:100490004908CF004001D72143014A0850019A0082
:1004A00043014B0850019B009A0A03199B0A400123
:1004B0000E2A5001400108000408F80094178E1B12
:1004C0005F2A0830F7004301C801F717792AF713AC
:1004D000792A031040018E1B03144301C80C7717BF
:1004E000792A7713F70B692A780884004808F800FE
:1004F0008E2A023084000030F71B5530F800F80BCC
:100500007F2A840B7B2A2130F71B0930F800F80B77
:10051000872AF71B672A771B712A692A88314001CD
:10052000232C7208F80088314A2C4301C90149087C
:10053000513C031CA52ABA304907840020308500AD
:100540000318850A8001C90A972A40010800023071
:100550007102F0009522F0080319EC2A4301C8014A
:1005600048087002031CD02ABA304807F80020302F
:10057000FA000318FA0A7808C9007A08CA00693034
:1005800048078400203085000318850A0008CB0046
:100590004A088500490884004B088000C80AB02A30
:1005A000C8014808513C031CEB2A69304807840005
:1005B000203085000318850A00087E3C0318E92ACC
:1005C000693048078400203085000318850A2030F0
:1005D0008000C80AD12A40017008F80088314F2CE9
:1005E0004301C8014808503C031C002B69304807F0
:1005F0008400203085000318850A8001C80AF22A89
:1006000088314001542C4301CB01CD01CE014E086D
:10061000083C031C152B43304E0784002030850016
:100620000318850A8001CE0A072BCC014C084A0228
:10063000031C4F2B4C084807F8000030493DFA00D6
:10064000780884007A0885000008CF00CF08031DD1
:100650002C2B4B08F8004F2B4F08203C031D322B4E
:100660000030332B0130D000CD080319392B003076
:100670003A2B013050050319492B0130CD0043308E
:100680004B078400203085000318850A4C08800041
:10069000CB0A4F08203C0319CD01CC0A162B883118
:1006A00040015F2C4301CC014C08143C031C622B1D
:1006B0001E304C078400213085000318850A800114
:1006C000CC0A542BCC014C084902031C9A2B480835
:1006D0004A07E20000304B3DE3004C086207F80097
:1006E0000030633DFA00780884007A08850000082D
:1006F000CD004D08203C03197F2B0030802B0130AA
:10070000E200CD080319862B0030872B01306204EC
:1007100003198F2B1E30F8002130F9009E2B1E305C
:100720004C078400213085000318850A4D0880009D
:10073000CC0A632B1E30F8002130F900400108007C
:1007400010304301CC00F701FA01C90CC80C031C9E
:10075000AF2B4A08F7070318FA0A4B08FA07FA0CF6
:10076000F70CF90CF80CCC0BA52B883140018A2C26
:1007700080080319D32B05084301CB000408CA00E5
:100780000008CC00400885003F0884004C081A008F
:100790008001BF0A0319C00A4B0885004A0884007B
:1007A00001314001B82B8831A02C43014A08FA00DE
:1007B000490884007A0885000008CD004C08FA003A
:1007C0004B0884007A08850000084D02031DFE2BAB
:1007D0004A08FA00490884007A0885008008031D49
:1007E000F42B0030F800142C4A08FA004908C90A12
:1007F0000319CA0ACB0A0319CC0AD62B4A08FA00F5
:10080000490884004A0885000008CD004C08FA0019
:100810004B0884004C08850000084D020318122C78
:10082000FF30132C0130F800400108004301D201D1
:10083000D0010A30D100CF01CE014C084D04031D78
:10084000252C0030F800F900432D5208D20A4C073D
:10085000840000304D3D85000008D30053082D3C36
:10086000031D3E2C0130D0005208D20A4C078400F0
:1008700000304D3D85000008D3004B2C53082B3C25
:10088000031D4B2C5208D20A4C07840000304D3D0A
:1008900085000008D30053082F3C0318342D53085B
:1008A000393C031C342D5308303C031D772C52086F
:1008B0004C07840000304D3D85000008783C03194A
:1008C0006B2C52084C07840000304D3D8500000819
:1008D000583C031D772C1030D100D20A5208D20A9E
:1008E0004C07840000304D3D85000008D3005108BE
:1008F0000A3C031DCD2C53082F3C0318CC2C530865
:10090000393C031CCC2CD6010A30D5004F08D80046
:100910004E08D700560858068039DB00D61F952CA4
:10092000D509D609D50A0319D60AD81F9C2CD70990
:10093000D809D70A0319D80A1030DA00F701FA01EA
:10094000D60CD50C031CAA2C5708F7070318FA0A73
:100950005808FA07FA0CF70CF90CF80CDA0BA02C73
:10096000DB1FB72CF809F909F80A0319F90A790805
:10097000D6007808D500303053025507CE0000303D
:10098000563DCF005208D20A4C07840000304D3D3E
:1009900085000008D3007B2C342D5108103C031D2A
:1009A000342D5308603C0318DC2C53087A3C031C9C
:1009B000DC2C5308DF39DD2C5308D30053082F3CBF
:1009C0000318E62C5308393C0318EE2C5308403C1E
:1009D0000318342D5308463C031C342D53082F3C78
:1009E00003180A2D5308393C031C0A2D4E0DD5005F
:1009F0004F0DD600D50DD60DD50DD60DD50DD60D76
:100A0000F030D505303053025507CE000030563D4A
:100A1000CF001E2D4E0DD5004F0DD600D50DD60D95
:100A2000D50DD60DD50DD60DF030D505413053027C
:100A30000A3E5507CE000030563DCF005208D20A7C
:100A40004C07840000304D3D85000008D300603C19
:100A50000318312D53087A3C031C312D5308DF391C
:100A6000322D5308D300DE2C51080A3C031D3F2DC4
:100A7000500B3F2DCE09CF09CE0A0319CF0A4E08DD
:100A8000F8004F08F90040010800F701F8014301A0
:100A9000540803105518F707F70CF80CD518F7078A
:100AA000F70CF80C5519F707F70CF80CD519F707E0
:100AB000F70CF80C551AF707F70CF80CD51AF707CE
:100AC000F70CF80C551BF707F70CF80CD51BF707BC
:100AD000F70CF80C400108004301D101CF010A30A6
:100AE000D000CE014C084D04031D792D0030F800D4
:100AF0004B2E5108D10A4C07840000304D3D850033
:100B00000008D20052082D3C031D922D0130CF0069
:100B10005108D10A4C07840000304D3D8500000883
:100B2000D2009F2D52082B3C031D9F2D5108D10A46
:100B30004C07840000304D3D85000008D20052086B
:100B40002F3C0318412E5208393C031C412E5208F9
:100B5000303C031DCB2D51084C07840000304D3D27
:100B600085000008783C0319BF2D51084C0784000C
:100B700000304D3D85000008583C031DCB2D103042
:100B8000D000D10A5108D10A4C07840000304D3DF5
:100B900085000008D20050080A3C031DEF2D5208C2
:100BA0002F3C0318EE2D5208393C031CEE2D0A3061
:100BB000D4004E08D5004001452578084301D400F3
:100BC000303052025407CE005108D10A4C0784003D
:100BD00000304D3D85000008D200CF2D412E500839
:100BE000103C031D412E5208603C0318FE2D520894
:100BF0007A3C031CFE2D5208DF39FF2D5208D2002B
:100C000052082F3C0318082E5208393C0318102EA6
:100C10005208403C0318412E5208463C031C412E0A
:100C200052082F3C0318212E5208393C031C212E58
:100C30004E0ED400F030D405303052025407CE00AE
:100C40002A2E4E0ED400F030D405413052020A3E16
:100C50005407CE005108D10A4C07840000304D3DA6
:100C600085000008D2005208603C03183E2E52084E
:100C70007A3C031C3E2E5208DF393F2E5208D20028
:100C8000002E4F0B492E50080A3C031D492ECE0959
:100C9000CE0A4E08F80040010800F700F8010830BD
:100CA000F90078080F39043C0318582E0330F80770
:100CB000780E0F39043C03185F2E3030F80703100C
:100CC000F70DF80DF90B512E080043014C08F801FF
:100CD0004B0203186E2E4B08F7007A2EF7010830EE
:100CE000CD00CB0DF70D4C0877020318F700F80D77
:100CF000CD0B712E40010800780843014908CB0054
:100D00006430CC004001652677084301C9007808AB
:100D10003030031D922ECA1C9B2ECA199B2E4A1AD4
:100D20002030952ECA114A124A14F8077808CF00CD
:100D30004001D72143014908CB000A30CC004001D3
:100D4000652677084301C90078083030031DAE2EB0
:100D5000CA19B42E4A1CB42E4A1A2030F807780853
:100D6000CF004001D72143013030C9074908CF00E7
:060D70004001D72108003C
:101000004301C80140015F0803191C28013A031974
:101010007228033A0319CE28013A03191729073A0F
:101020000319B329013A0319ED29033A0319A02A38
:10103000013A0319DB2A642BE008031D7128CC3028
:1010400050019A0000309B00803140010E2288310F
:101050003A3041019F000330F700F70B2D2830286C
:101060004201111400004301C901420111183B283B
:101070004301C90A42014301C908031D4828C901A7
:101080004201111846284301C90A42013B28430185
:1010900042011118492841011D08F8001E084301AA
:1010A000BE007808BD003E08023C031C6828031DF2
:1010B0005D283D08DF3C031C6828D13050019A00B0
:1010C00000309B00803140010E228831712843019D
:1010D000D83050019A0000309B00803140010E2230
:1010E00088316D2BE008031DCD283708CB00380868
:1010F000CC0020304301CD002B30CC0080314001AA
:101100006C25883178084301C90049084001AF00C7
:101110003A08CB003B08CC0020304301CD002B30F7
:10112000CC00803140016C25883178084301CA0029
:101130004A084001B1003D08CB003E08CC002030F9
:101140004301CD002B30CC00803140016C2588312B
:1011500078084301CB004B084001AE000130B400D9
:1011600058018C16203085000E3084000C3087002A
:10117000103086000730FA0000080131803140014C
:101180004D268831780881004131FA0BC828CA28D9
:101190005801BC2858018C1240016D2BE008031D3A
:1011A00016293708CB003808CC0020304301CD0089
:1011B0002B30CC00803140016C2588317808430108
:1011C000C90049084001B2003A08CB003B08CC00F6
:1011D00020304301CD002B30CC00803140016C2504
:1011E000883178084301CA004A084001B300013041
:1011F000B40058018C16203085000E3084000C306D
:101200008700103086000730FA0000080131803175
:1012100040014D268831780881004131FA0B1129AF
:1012200013295801052958018C1240016D2BE00843
:10123000031DB229203085000E3084000C30870059
:10124000103086000730F900010841314301C90020
:10125000490E0F39D4000A30D500803140014525B0
:101260008831430149080F39780780000131F90BB3
:101270003A293C294001242940012F084301C90093
:101280000130CA00803140017C2688312F30430173
:10129000CF0080314001D721883131084301C90096
:1012A0000130CA00803140017C2688312F30430153
:1012B000CF0080314001D721883132304301CF0047
:1012C00080314001D721883130304301CF00803157
:1012D0004001D72188312E084301C9000130CA00DE
:1012E000803140017C26883120304301CF0080319D
:1012F0004001D721883132084301C9000130CA00BA
:10130000803140017C2688313A304301CF00803162
:101310004001D721883133084301C9000130CA0098
:10132000803140017C2688313A304301CF00803142
:101330004001D721883134084301C9000130CA0077
:10134000803140017C2688310A304301CF00803152
:101350004001D72188310D304301CF008031400159
:10136000D72188316D2BE008031DEA292030430185
:10137000CA003930C9002030CC001730CB00803192
:101380004001D5238831F808031DE129B030500110
:101390009A0001309B00803140010E228831931069
:1013A00099104E01961201304301C900803140016D
:1013B000BB2188315001921051018C136300EB293D
:1013C0004001DF3050019A0000309B008031400125
:1013D0000E228831510140016D2BE008031D9F2A28
:1013E00020304301CD001730CC008031400116245D
:1013F000883179084301BC007808BB003C08FA003A
:101400003B0884007A0885000008C900E5305001D7
:101410009A0000309B0003100A304301CA000B08F9
:101420008B1350019E171E1400000000891B8B17A0
:101430000318442A1C087F394301CC0050011A08C4
:101440004301CD0050011B084301CE004C08CF00E2
:1014500080314001D721883143014D0850019A0065
:1014600043014E0850019B000B088B139E171E145E
:1014700000000000891B8B174301CA0B402A422A37
:101480005001442A662A50011C0D1D0D7F3943016D
:10149000CC0050011A084301CD0050011B08430144
:1014A000CE004C08CF0080314001D7218831430164
:1014B0004D0850019A0043014E0850019B009A0AC2
:1014C00003199B0A03104301CA0B0F2A4908CA00DB
:1014D0005730CB00CB1B802A0F30F7004A0EF705A0
:1014E0000A3077020318772A3030F707792A4B0839
:1014F000F7077708CF0080314001D72188314301B9
:101500000F30CA050A304A020318882A30308A2A66
:10151000CB134B08CA074A08CF0080314001D721BE
:1015200088310A304301CF0080314001D721883112
:101530000D304301CF0080314001D72188316D2B20
:10154000E008031DDA2A3708D0003808D10039082E
:10155000D2003A08D3003B08D4003C08D500D6019D
:1015600020304301CD003030CC00803140011624C2
:10157000883179084301CA007808C90040013E0853
:10158000CB003F08CC004008CD004108CE00203001
:101590004301CD002B30CC00803140016C258831D7
:1015A00078084301CB00490884004A0885004B08AD
:1015B000800040016D2BE008031D632BED305001CE
:1015C0009A0000309B00803140010E228831FE30AD
:1015D00050019A0000309B00803140010E2288317A
:1015E000093050019A0001309B00803140010E22E9
:1015F0008831203050019A0001309B008031400139
:101600000E228831313050019A0001309B00803128
:1016100040010E2288313D3050019A0001309B007C
:10162000803140010E2288314B3050019A00013048
:101630009B00803140010E228831583050019A00C1
:1016400001309B00803140010E2288316D30500105
:101650009A0001309B00803140010E2288317930A0
:1016600050019A0001309B00803140010E228831E8
:10167000813050019A0001309B00803140010E22E0
:10168000883120304301CA001730C9002030CC0017
:101690003730CB0080314001D5238831F808031D55
:1016A000632B923050019A0001309B008031400141
:1016B0000E2288319E3050019A0001309B0080310B
:1016C00040010E2288316D2BAC3050019A00013060
:1016D0009B00803140010E22883143014808F80008
:1016E00088314001572D55307D018F00AA308F0081
:1016F0000F101730CB0055308F00AA308F000F1419
:10170000510192018F0191010330930060308D00EF
:10171000400114131A174301C001BF017A018C0163
:101720008D018E018F0190019101920193017E0143
:10173000B801C301CE0153019101920193019001BF
:101740009501960197019401C72B0434003470343D
:1017500000340034003400340234203408340034BF
:101760000034013420341634003407342034373444
:101770002B34003453344C344534453450340F3416
:10178000C0340034BA3460345534003400340B3083
:101790008500A530840085171200F700003A031970
:1017A000E12B1200F800F81BD92B3F3987001200FB
:1017B0008600781B1200781F12001E00F70BDB2B2F
:1017C000CC2B0030420196007E01B800C300CE0051
:1017D000083042019300940198018D01FF308C0084
:1017E00041019A0194304201910080304B019E00EA
:1017F00046309F0058018C168D0180308C008C1271
:101800004E0196161E17C0308B044301C90180316A
:101810004001BB2188313C30B600AD3050019A0008
:1018200000309B00803140010E228831B1305001E0
:101830009A0000309B00803140010E2288318E1BBF
:10184000482C80315C2A88317808F4007108F10A4C
:10185000693E8400203085000318850A74088000E2
:1018600071084E3C0318362C4F30F10074080D3CC3
:10187000031D3C2C0A30F40074080A3C031D482C5C
:101880007108023C0318472C0130F200482CF1018A
:101890008031912A8831780B6D2D8031A72A8831CB
:1018A0007808F3008031F02A883120304301C900E4
:1018B000BA30C8005130CA0080314001032B883152
:1018C0004301C2017808C100400163084301C80018
:1018D0001430C9002030CB00BA30CA00803140013A
:1018E000522388317908EC007808EB004301C401E9
:1018F000C301C408031DCE2C4308093C031CCE2C95
:101900004408C9004308C800CB010630CA00803132
:101910004001A02B88317908FA0078084301C800FB
:101920002030C0005530BF00623085018400803017
:101930008500480884070030853D80314001B82B80
:10194000883120304301CA005530C90040016C087D
:101950004301CC0040016B084301CB0080314001C2
:10196000D52388317808DF00DF08031DBE2C430132
:1019700043084001DF004301CE2C400143014308EE
:10198000133C031DCA2CC408031DCA2C4308400184
:10199000DF004301C30A0319C40A792C4001EC019A
:1019A0002330EB0064084301C8001430C900203024
:1019B000CB00BA30CA008031400152238831790807
:1019C000EC007808EB006C08FA006B0884007A08D9
:1019D00085000008233C0319E0016C08FA006B083D
:1019E00084007A08850000083F3C031DF92C013073
:1019F000E0006C08FA006B0884007A088500000893
:101A00003D3C031D052D0230E0006C0885006B088D
:101A10008400203087001730860012001E00031D4E
:101A20000D2DEC01EB0165084301C8001430C9001D
:101A30002030CB00BA30CA008031400152238831B7
:101A40007908EC007808EB006008023C031D522D79
:101A500065084301C8001430C9002030CB00BA30FB
:101A6000CA0080314001522388317908EC0078089F
:101A7000EB006C0885006B088400203087004D3037
:101A8000860012001E00031D412D20304301CD00B1
:101A90004D30CC0080314001162488317908E200B5
:101AA0007808E1005F08093C031C5D2D0028430114
:101AB000C6017808C500672D4001C43050019A0066
:101AC00000309B00803140010E228831430180317B
:0E1AD000400195228831F201F1011F2C6300C4
:020000040001F9
:0A000E00E83D393F9F3FEF3FFF3F01
:00000001FF
;PIC16F19155
;CRC=3C01  CREATED="13-Apr-23 09:18"
